{
	"error.sol": {
		"error": {
			"abi": [
				{
					"inputs": [],
					"stateMutability": "nonpayable",
					"type": "constructor"
				},
				{
					"inputs": [],
					"name": "call",
					"outputs": [],
					"stateMutability": "nonpayable",
					"type": "function"
				},
				{
					"inputs": [],
					"name": "count",
					"outputs": [
						{
							"internalType": "uint256",
							"name": "",
							"type": "uint256"
						}
					],
					"stateMutability": "view",
					"type": "function"
				},
				{
					"inputs": [],
					"name": "owner",
					"outputs": [
						{
							"internalType": "address",
							"name": "",
							"type": "address"
						}
					],
					"stateMutability": "view",
					"type": "function"
				}
			],
			"devdoc": {
				"kind": "dev",
				"methods": {},
				"version": 1
			},
			"evm": {
				"assembly": "    /* \"error.sol\":63:313  contract error{\r... */\n  mstore(0x40, 0x80)\n    /* \"error.sol\":137:187  constructor(){\r... */\n  callvalue\n  dup1\n  iszero\n  tag_1\n  jumpi\n  0x00\n  dup1\n  revert\ntag_1:\n  pop\n    /* \"error.sol\":169:179  msg.sender */\n  caller\n    /* \"error.sol\":161:166  owner */\n  0x00\n  dup1\n    /* \"error.sol\":161:179  owner = msg.sender */\n  0x0100\n  exp\n  dup2\n  sload\n  dup2\n  0xffffffffffffffffffffffffffffffffffffffff\n  mul\n  not\n  and\n  swap1\n  dup4\n  0xffffffffffffffffffffffffffffffffffffffff\n  and\n  mul\n  or\n  swap1\n  sstore\n  pop\n    /* \"error.sol\":63:313  contract error{\r... */\n  dataSize(sub_0)\n  dup1\n  dataOffset(sub_0)\n  0x00\n  codecopy\n  0x00\n  return\nstop\n\nsub_0: assembly {\n        /* \"error.sol\":63:313  contract error{\r... */\n      mstore(0x40, 0x80)\n      callvalue\n      dup1\n      iszero\n      tag_1\n      jumpi\n      0x00\n      dup1\n      revert\n    tag_1:\n      pop\n      jumpi(tag_2, lt(calldatasize, 0x04))\n      shr(0xe0, calldataload(0x00))\n      dup1\n      0x06661abd\n      eq\n      tag_3\n      jumpi\n      dup1\n      0x28b5e32b\n      eq\n      tag_4\n      jumpi\n      dup1\n      0x8da5cb5b\n      eq\n      tag_5\n      jumpi\n    tag_2:\n      0x00\n      dup1\n      revert\n        /* \"error.sol\":111:128  uint public count */\n    tag_3:\n      tag_6\n      tag_7\n      jump\t// in\n    tag_6:\n      mload(0x40)\n      tag_8\n      swap2\n      swap1\n      tag_9\n      jump\t// in\n    tag_8:\n      mload(0x40)\n      dup1\n      swap2\n      sub\n      swap1\n      return\n        /* \"error.sol\":195:310  function call() public  {\r... */\n    tag_4:\n      tag_10\n      tag_11\n      jump\t// in\n    tag_10:\n      stop\n        /* \"error.sol\":84:104  address public owner */\n    tag_5:\n      tag_12\n      tag_13\n      jump\t// in\n    tag_12:\n      mload(0x40)\n      tag_14\n      swap2\n      swap1\n      tag_15\n      jump\t// in\n    tag_14:\n      mload(0x40)\n      dup1\n      swap2\n      sub\n      swap1\n      return\n        /* \"error.sol\":111:128  uint public count */\n    tag_7:\n      sload(0x01)\n      dup2\n      jump\t// out\n        /* \"error.sol\":195:310  function call() public  {\r... */\n    tag_11:\n        /* \"error.sol\":230:235  count */\n      0x01\n      0x00\n        /* \"error.sol\":230:237  count++ */\n      dup2\n      sload\n      dup1\n      swap3\n      swap2\n      swap1\n      tag_17\n      swap1\n      tag_18\n      jump\t// in\n    tag_17:\n      swap2\n      swap1\n      pop\n      sstore\n      pop\n        /* \"error.sol\":270:275  owner */\n      0x00\n      dup1\n      sload\n      swap1\n      0x0100\n      exp\n      swap1\n      div\n      0xffffffffffffffffffffffffffffffffffffffff\n      and\n        /* \"error.sol\":256:275  msg.sender == owner */\n      0xffffffffffffffffffffffffffffffffffffffff\n      and\n        /* \"error.sol\":256:266  msg.sender */\n      caller\n        /* \"error.sol\":256:275  msg.sender == owner */\n      0xffffffffffffffffffffffffffffffffffffffff\n      and\n      eq\n        /* \"error.sol\":248:296  require(msg.sender == owner,'call is not owner') */\n      tag_19\n      jumpi\n      mload(0x40)\n      0x08c379a000000000000000000000000000000000000000000000000000000000\n      dup2\n      mstore\n      0x04\n      add\n      tag_20\n      swap1\n      tag_21\n      jump\t// in\n    tag_20:\n      mload(0x40)\n      dup1\n      swap2\n      sub\n      swap1\n      revert\n    tag_19:\n        /* \"error.sol\":195:310  function call() public  {\r... */\n      jump\t// out\n        /* \"error.sol\":84:104  address public owner */\n    tag_13:\n      0x00\n      dup1\n      sload\n      swap1\n      0x0100\n      exp\n      swap1\n      div\n      0xffffffffffffffffffffffffffffffffffffffff\n      and\n      dup2\n      jump\t// out\n        /* \"#utility.yul\":7:125   */\n    tag_23:\n        /* \"#utility.yul\":94:118   */\n      tag_25\n        /* \"#utility.yul\":112:117   */\n      dup2\n        /* \"#utility.yul\":94:118   */\n      tag_26\n      jump\t// in\n    tag_25:\n        /* \"#utility.yul\":89:92   */\n      dup3\n        /* \"#utility.yul\":82:119   */\n      mstore\n        /* \"#utility.yul\":7:125   */\n      pop\n      pop\n      jump\t// out\n        /* \"#utility.yul\":131:497   */\n    tag_27:\n        /* \"#utility.yul\":273:276   */\n      0x00\n        /* \"#utility.yul\":294:361   */\n      tag_29\n        /* \"#utility.yul\":358:360   */\n      0x11\n        /* \"#utility.yul\":353:356   */\n      dup4\n        /* \"#utility.yul\":294:361   */\n      tag_30\n      jump\t// in\n    tag_29:\n        /* \"#utility.yul\":287:361   */\n      swap2\n      pop\n        /* \"#utility.yul\":370:463   */\n      tag_31\n        /* \"#utility.yul\":459:462   */\n      dup3\n        /* \"#utility.yul\":370:463   */\n      tag_32\n      jump\t// in\n    tag_31:\n        /* \"#utility.yul\":488:490   */\n      0x20\n        /* \"#utility.yul\":483:486   */\n      dup3\n        /* \"#utility.yul\":479:491   */\n      add\n        /* \"#utility.yul\":472:491   */\n      swap1\n      pop\n        /* \"#utility.yul\":131:497   */\n      swap2\n      swap1\n      pop\n      jump\t// out\n        /* \"#utility.yul\":503:621   */\n    tag_33:\n        /* \"#utility.yul\":590:614   */\n      tag_35\n        /* \"#utility.yul\":608:613   */\n      dup2\n        /* \"#utility.yul\":590:614   */\n      tag_36\n      jump\t// in\n    tag_35:\n        /* \"#utility.yul\":585:588   */\n      dup3\n        /* \"#utility.yul\":578:615   */\n      mstore\n        /* \"#utility.yul\":503:621   */\n      pop\n      pop\n      jump\t// out\n        /* \"#utility.yul\":627:849   */\n    tag_15:\n        /* \"#utility.yul\":720:724   */\n      0x00\n        /* \"#utility.yul\":758:760   */\n      0x20\n        /* \"#utility.yul\":747:756   */\n      dup3\n        /* \"#utility.yul\":743:761   */\n      add\n        /* \"#utility.yul\":735:761   */\n      swap1\n      pop\n        /* \"#utility.yul\":771:842   */\n      tag_38\n        /* \"#utility.yul\":839:840   */\n      0x00\n        /* \"#utility.yul\":828:837   */\n      dup4\n        /* \"#utility.yul\":824:841   */\n      add\n        /* \"#utility.yul\":815:821   */\n      dup5\n        /* \"#utility.yul\":771:842   */\n      tag_23\n      jump\t// in\n    tag_38:\n        /* \"#utility.yul\":627:849   */\n      swap3\n      swap2\n      pop\n      pop\n      jump\t// out\n        /* \"#utility.yul\":855:1274   */\n    tag_21:\n        /* \"#utility.yul\":1021:1025   */\n      0x00\n        /* \"#utility.yul\":1059:1061   */\n      0x20\n        /* \"#utility.yul\":1048:1057   */\n      dup3\n        /* \"#utility.yul\":1044:1062   */\n      add\n        /* \"#utility.yul\":1036:1062   */\n      swap1\n      pop\n        /* \"#utility.yul\":1108:1117   */\n      dup2\n        /* \"#utility.yul\":1102:1106   */\n      dup2\n        /* \"#utility.yul\":1098:1118   */\n      sub\n        /* \"#utility.yul\":1094:1095   */\n      0x00\n        /* \"#utility.yul\":1083:1092   */\n      dup4\n        /* \"#utility.yul\":1079:1096   */\n      add\n        /* \"#utility.yul\":1072:1119   */\n      mstore\n        /* \"#utility.yul\":1136:1267   */\n      tag_40\n        /* \"#utility.yul\":1262:1266   */\n      dup2\n        /* \"#utility.yul\":1136:1267   */\n      tag_27\n      jump\t// in\n    tag_40:\n        /* \"#utility.yul\":1128:1267   */\n      swap1\n      pop\n        /* \"#utility.yul\":855:1274   */\n      swap2\n      swap1\n      pop\n      jump\t// out\n        /* \"#utility.yul\":1280:1502   */\n    tag_9:\n        /* \"#utility.yul\":1373:1377   */\n      0x00\n        /* \"#utility.yul\":1411:1413   */\n      0x20\n        /* \"#utility.yul\":1400:1409   */\n      dup3\n        /* \"#utility.yul\":1396:1414   */\n      add\n        /* \"#utility.yul\":1388:1414   */\n      swap1\n      pop\n        /* \"#utility.yul\":1424:1495   */\n      tag_42\n        /* \"#utility.yul\":1492:1493   */\n      0x00\n        /* \"#utility.yul\":1481:1490   */\n      dup4\n        /* \"#utility.yul\":1477:1494   */\n      add\n        /* \"#utility.yul\":1468:1474   */\n      dup5\n        /* \"#utility.yul\":1424:1495   */\n      tag_33\n      jump\t// in\n    tag_42:\n        /* \"#utility.yul\":1280:1502   */\n      swap3\n      swap2\n      pop\n      pop\n      jump\t// out\n        /* \"#utility.yul\":1508:1677   */\n    tag_30:\n        /* \"#utility.yul\":1592:1603   */\n      0x00\n        /* \"#utility.yul\":1626:1632   */\n      dup3\n        /* \"#utility.yul\":1621:1624   */\n      dup3\n        /* \"#utility.yul\":1614:1633   */\n      mstore\n        /* \"#utility.yul\":1666:1670   */\n      0x20\n        /* \"#utility.yul\":1661:1664   */\n      dup3\n        /* \"#utility.yul\":1657:1671   */\n      add\n        /* \"#utility.yul\":1642:1671   */\n      swap1\n      pop\n        /* \"#utility.yul\":1508:1677   */\n      swap3\n      swap2\n      pop\n      pop\n      jump\t// out\n        /* \"#utility.yul\":1683:1779   */\n    tag_26:\n        /* \"#utility.yul\":1720:1727   */\n      0x00\n        /* \"#utility.yul\":1749:1773   */\n      tag_45\n        /* \"#utility.yul\":1767:1772   */\n      dup3\n        /* \"#utility.yul\":1749:1773   */\n      tag_46\n      jump\t// in\n    tag_45:\n        /* \"#utility.yul\":1738:1773   */\n      swap1\n      pop\n        /* \"#utility.yul\":1683:1779   */\n      swap2\n      swap1\n      pop\n      jump\t// out\n        /* \"#utility.yul\":1785:1911   */\n    tag_46:\n        /* \"#utility.yul\":1822:1829   */\n      0x00\n        /* \"#utility.yul\":1862:1904   */\n      0xffffffffffffffffffffffffffffffffffffffff\n        /* \"#utility.yul\":1855:1860   */\n      dup3\n        /* \"#utility.yul\":1851:1905   */\n      and\n        /* \"#utility.yul\":1840:1905   */\n      swap1\n      pop\n        /* \"#utility.yul\":1785:1911   */\n      swap2\n      swap1\n      pop\n      jump\t// out\n        /* \"#utility.yul\":1917:1994   */\n    tag_36:\n        /* \"#utility.yul\":1954:1961   */\n      0x00\n        /* \"#utility.yul\":1983:1988   */\n      dup2\n        /* \"#utility.yul\":1972:1988   */\n      swap1\n      pop\n        /* \"#utility.yul\":1917:1994   */\n      swap2\n      swap1\n      pop\n      jump\t// out\n        /* \"#utility.yul\":2000:2233   */\n    tag_18:\n        /* \"#utility.yul\":2039:2042   */\n      0x00\n        /* \"#utility.yul\":2062:2086   */\n      tag_50\n        /* \"#utility.yul\":2080:2085   */\n      dup3\n        /* \"#utility.yul\":2062:2086   */\n      tag_36\n      jump\t// in\n    tag_50:\n        /* \"#utility.yul\":2053:2086   */\n      swap2\n      pop\n        /* \"#utility.yul\":2108:2174   */\n      0xffffffffffffffffffffffffffffffffffffffffffffffffffffffffffffffff\n        /* \"#utility.yul\":2101:2106   */\n      dup3\n        /* \"#utility.yul\":2098:2175   */\n      eq\n        /* \"#utility.yul\":2095:2198   */\n      iszero\n      tag_51\n      jumpi\n        /* \"#utility.yul\":2178:2196   */\n      tag_52\n      tag_53\n      jump\t// in\n    tag_52:\n        /* \"#utility.yul\":2095:2198   */\n    tag_51:\n        /* \"#utility.yul\":2225:2226   */\n      0x01\n        /* \"#utility.yul\":2218:2223   */\n      dup3\n        /* \"#utility.yul\":2214:2227   */\n      add\n        /* \"#utility.yul\":2207:2227   */\n      swap1\n      pop\n        /* \"#utility.yul\":2000:2233   */\n      swap2\n      swap1\n      pop\n      jump\t// out\n        /* \"#utility.yul\":2239:2419   */\n    tag_53:\n        /* \"#utility.yul\":2287:2364   */\n      0x4e487b7100000000000000000000000000000000000000000000000000000000\n        /* \"#utility.yul\":2284:2285   */\n      0x00\n        /* \"#utility.yul\":2277:2365   */\n      mstore\n        /* \"#utility.yul\":2384:2388   */\n      0x11\n        /* \"#utility.yul\":2381:2382   */\n      0x04\n        /* \"#utility.yul\":2374:2389   */\n      mstore\n        /* \"#utility.yul\":2408:2412   */\n      0x24\n        /* \"#utility.yul\":2405:2406   */\n      0x00\n        /* \"#utility.yul\":2398:2413   */\n      revert\n        /* \"#utility.yul\":2425:2592   */\n    tag_32:\n        /* \"#utility.yul\":2565:2584   */\n      0x63616c6c206973206e6f74206f776e6572000000000000000000000000000000\n        /* \"#utility.yul\":2561:2562   */\n      0x00\n        /* \"#utility.yul\":2553:2559   */\n      dup3\n        /* \"#utility.yul\":2549:2563   */\n      add\n        /* \"#utility.yul\":2542:2585   */\n      mstore\n        /* \"#utility.yul\":2425:2592   */\n      pop\n      jump\t// out\n\n    auxdata: 0xa26469706673582212208b8bbfe7e8cc524ea599dcfd1b17055cd8232a4f65aee99c2ab4ff6c3833501864736f6c63430008070033\n}\n",
				"bytecode": {
					"linkReferences": {},
					"object": "608060405234801561001057600080fd5b50336000806101000a81548173ffffffffffffffffffffffffffffffffffffffff021916908373ffffffffffffffffffffffffffffffffffffffff160217905550610319806100606000396000f3fe608060405234801561001057600080fd5b50600436106100415760003560e01c806306661abd1461004657806328b5e32b146100645780638da5cb5b1461006e575b600080fd5b61004e61008c565b60405161005b91906101da565b60405180910390f35b61006c610092565b005b61007661013a565b604051610083919061019f565b60405180910390f35b60015481565b600160008154809291906100a590610242565b919050555060008054906101000a900473ffffffffffffffffffffffffffffffffffffffff1673ffffffffffffffffffffffffffffffffffffffff163373ffffffffffffffffffffffffffffffffffffffff1614610138576040517f08c379a000000000000000000000000000000000000000000000000000000000815260040161012f906101ba565b60405180910390fd5b565b60008054906101000a900473ffffffffffffffffffffffffffffffffffffffff1681565b61016781610206565b82525050565b600061017a6011836101f5565b9150610185826102ba565b602082019050919050565b61019981610238565b82525050565b60006020820190506101b4600083018461015e565b92915050565b600060208201905081810360008301526101d38161016d565b9050919050565b60006020820190506101ef6000830184610190565b92915050565b600082825260208201905092915050565b600061021182610218565b9050919050565b600073ffffffffffffffffffffffffffffffffffffffff82169050919050565b6000819050919050565b600061024d82610238565b91507fffffffffffffffffffffffffffffffffffffffffffffffffffffffffffffffff8214156102805761027f61028b565b5b600182019050919050565b7f4e487b7100000000000000000000000000000000000000000000000000000000600052601160045260246000fd5b7f63616c6c206973206e6f74206f776e657200000000000000000000000000000060008201525056fea26469706673582212208b8bbfe7e8cc524ea599dcfd1b17055cd8232a4f65aee99c2ab4ff6c3833501864736f6c63430008070033",
					"opcodes": "PUSH1 0x80 PUSH1 0x40 MSTORE CALLVALUE DUP1 ISZERO PUSH2 0x10 JUMPI PUSH1 0x0 DUP1 REVERT JUMPDEST POP CALLER PUSH1 0x0 DUP1 PUSH2 0x100 EXP DUP2 SLOAD DUP2 PUSH20 0xFFFFFFFFFFFFFFFFFFFFFFFFFFFFFFFFFFFFFFFF MUL NOT AND SWAP1 DUP4 PUSH20 0xFFFFFFFFFFFFFFFFFFFFFFFFFFFFFFFFFFFFFFFF AND MUL OR SWAP1 SSTORE POP PUSH2 0x319 DUP1 PUSH2 0x60 PUSH1 0x0 CODECOPY PUSH1 0x0 RETURN INVALID PUSH1 0x80 PUSH1 0x40 MSTORE CALLVALUE DUP1 ISZERO PUSH2 0x10 JUMPI PUSH1 0x0 DUP1 REVERT JUMPDEST POP PUSH1 0x4 CALLDATASIZE LT PUSH2 0x41 JUMPI PUSH1 0x0 CALLDATALOAD PUSH1 0xE0 SHR DUP1 PUSH4 0x6661ABD EQ PUSH2 0x46 JUMPI DUP1 PUSH4 0x28B5E32B EQ PUSH2 0x64 JUMPI DUP1 PUSH4 0x8DA5CB5B EQ PUSH2 0x6E JUMPI JUMPDEST PUSH1 0x0 DUP1 REVERT JUMPDEST PUSH2 0x4E PUSH2 0x8C JUMP JUMPDEST PUSH1 0x40 MLOAD PUSH2 0x5B SWAP2 SWAP1 PUSH2 0x1DA JUMP JUMPDEST PUSH1 0x40 MLOAD DUP1 SWAP2 SUB SWAP1 RETURN JUMPDEST PUSH2 0x6C PUSH2 0x92 JUMP JUMPDEST STOP JUMPDEST PUSH2 0x76 PUSH2 0x13A JUMP JUMPDEST PUSH1 0x40 MLOAD PUSH2 0x83 SWAP2 SWAP1 PUSH2 0x19F JUMP JUMPDEST PUSH1 0x40 MLOAD DUP1 SWAP2 SUB SWAP1 RETURN JUMPDEST PUSH1 0x1 SLOAD DUP2 JUMP JUMPDEST PUSH1 0x1 PUSH1 0x0 DUP2 SLOAD DUP1 SWAP3 SWAP2 SWAP1 PUSH2 0xA5 SWAP1 PUSH2 0x242 JUMP JUMPDEST SWAP2 SWAP1 POP SSTORE POP PUSH1 0x0 DUP1 SLOAD SWAP1 PUSH2 0x100 EXP SWAP1 DIV PUSH20 0xFFFFFFFFFFFFFFFFFFFFFFFFFFFFFFFFFFFFFFFF AND PUSH20 0xFFFFFFFFFFFFFFFFFFFFFFFFFFFFFFFFFFFFFFFF AND CALLER PUSH20 0xFFFFFFFFFFFFFFFFFFFFFFFFFFFFFFFFFFFFFFFF AND EQ PUSH2 0x138 JUMPI PUSH1 0x40 MLOAD PUSH32 0x8C379A000000000000000000000000000000000000000000000000000000000 DUP2 MSTORE PUSH1 0x4 ADD PUSH2 0x12F SWAP1 PUSH2 0x1BA JUMP JUMPDEST PUSH1 0x40 MLOAD DUP1 SWAP2 SUB SWAP1 REVERT JUMPDEST JUMP JUMPDEST PUSH1 0x0 DUP1 SLOAD SWAP1 PUSH2 0x100 EXP SWAP1 DIV PUSH20 0xFFFFFFFFFFFFFFFFFFFFFFFFFFFFFFFFFFFFFFFF AND DUP2 JUMP JUMPDEST PUSH2 0x167 DUP2 PUSH2 0x206 JUMP JUMPDEST DUP3 MSTORE POP POP JUMP JUMPDEST PUSH1 0x0 PUSH2 0x17A PUSH1 0x11 DUP4 PUSH2 0x1F5 JUMP JUMPDEST SWAP2 POP PUSH2 0x185 DUP3 PUSH2 0x2BA JUMP JUMPDEST PUSH1 0x20 DUP3 ADD SWAP1 POP SWAP2 SWAP1 POP JUMP JUMPDEST PUSH2 0x199 DUP2 PUSH2 0x238 JUMP JUMPDEST DUP3 MSTORE POP POP JUMP JUMPDEST PUSH1 0x0 PUSH1 0x20 DUP3 ADD SWAP1 POP PUSH2 0x1B4 PUSH1 0x0 DUP4 ADD DUP5 PUSH2 0x15E JUMP JUMPDEST SWAP3 SWAP2 POP POP JUMP JUMPDEST PUSH1 0x0 PUSH1 0x20 DUP3 ADD SWAP1 POP DUP2 DUP2 SUB PUSH1 0x0 DUP4 ADD MSTORE PUSH2 0x1D3 DUP2 PUSH2 0x16D JUMP JUMPDEST SWAP1 POP SWAP2 SWAP1 POP JUMP JUMPDEST PUSH1 0x0 PUSH1 0x20 DUP3 ADD SWAP1 POP PUSH2 0x1EF PUSH1 0x0 DUP4 ADD DUP5 PUSH2 0x190 JUMP JUMPDEST SWAP3 SWAP2 POP POP JUMP JUMPDEST PUSH1 0x0 DUP3 DUP3 MSTORE PUSH1 0x20 DUP3 ADD SWAP1 POP SWAP3 SWAP2 POP POP JUMP JUMPDEST PUSH1 0x0 PUSH2 0x211 DUP3 PUSH2 0x218 JUMP JUMPDEST SWAP1 POP SWAP2 SWAP1 POP JUMP JUMPDEST PUSH1 0x0 PUSH20 0xFFFFFFFFFFFFFFFFFFFFFFFFFFFFFFFFFFFFFFFF DUP3 AND SWAP1 POP SWAP2 SWAP1 POP JUMP JUMPDEST PUSH1 0x0 DUP2 SWAP1 POP SWAP2 SWAP1 POP JUMP JUMPDEST PUSH1 0x0 PUSH2 0x24D DUP3 PUSH2 0x238 JUMP JUMPDEST SWAP2 POP PUSH32 0xFFFFFFFFFFFFFFFFFFFFFFFFFFFFFFFFFFFFFFFFFFFFFFFFFFFFFFFFFFFFFFFF DUP3 EQ ISZERO PUSH2 0x280 JUMPI PUSH2 0x27F PUSH2 0x28B JUMP JUMPDEST JUMPDEST PUSH1 0x1 DUP3 ADD SWAP1 POP SWAP2 SWAP1 POP JUMP JUMPDEST PUSH32 0x4E487B7100000000000000000000000000000000000000000000000000000000 PUSH1 0x0 MSTORE PUSH1 0x11 PUSH1 0x4 MSTORE PUSH1 0x24 PUSH1 0x0 REVERT JUMPDEST PUSH32 0x63616C6C206973206E6F74206F776E6572000000000000000000000000000000 PUSH1 0x0 DUP3 ADD MSTORE POP JUMP INVALID LOG2 PUSH5 0x6970667358 0x22 SLT KECCAK256 DUP12 DUP12 0xBF 0xE7 0xE8 0xCC MSTORE 0x4E 0xA5 SWAP10 0xDC REVERT SHL OR SDIV 0x5C 0xD8 0x23 0x2A 0x4F PUSH6 0xAEE99C2AB4FF PUSH13 0x3833501864736F6C6343000807 STOP CALLER "
				},
				"gasEstimates": {
					"creation": {
						"codeDepositCost": "158600",
						"executionCost": "24468",
						"totalCost": "183068"
					},
					"external": {
						"call()": "26960",
						"count()": "2407",
						"owner()": "2533"
					}
				},
				"methodIdentifiers": {
					"call()": "28b5e32b",
					"count()": "06661abd",
					"owner()": "8da5cb5b"
				}
			},
			"storageLayout": {
				"storage": [
					{
						"astId": 3,
						"contract": "error.sol:error",
						"label": "owner",
						"offset": 0,
						"slot": "0",
						"type": "t_address"
					},
					{
						"astId": 5,
						"contract": "error.sol:error",
						"label": "count",
						"offset": 0,
						"slot": "1",
						"type": "t_uint256"
					}
				],
				"types": {
					"t_address": {
						"encoding": "inplace",
						"label": "address",
						"numberOfBytes": "20"
					},
					"t_uint256": {
						"encoding": "inplace",
						"label": "uint256",
						"numberOfBytes": "32"
					}
				}
			},
			"userdoc": {
				"kind": "user",
				"methods": {},
				"version": 1
			}
		}
	}
}