{
	"uints.sol": {
		"units": {
			"abi": [
				{
					"inputs": [],
					"name": "send",
					"outputs": [],
					"stateMutability": "payable",
					"type": "function"
				}
			],
			"devdoc": {
				"kind": "dev",
				"methods": {},
				"version": 1
			},
			"evm": {
				"assembly": "    /* \"uints.sol\":65:219  contract units {\r... */\n  mstore(0x40, 0x80)\n  callvalue\n  dup1\n  iszero\n  tag_1\n  jumpi\n  0x00\n  dup1\n  revert\ntag_1:\n  pop\n  dataSize(sub_0)\n  dup1\n  dataOffset(sub_0)\n  0x00\n  codecopy\n  0x00\n  return\nstop\n\nsub_0: assembly {\n        /* \"uints.sol\":65:219  contract units {\r... */\n      mstore(0x40, 0x80)\n      jumpi(tag_1, lt(calldatasize, 0x04))\n      shr(0xe0, calldataload(0x00))\n      dup1\n      0xb46300ec\n      eq\n      tag_2\n      jumpi\n    tag_1:\n      0x00\n      dup1\n      revert\n        /* \"uints.sol\":170:216  function send()public payable amount{\r... */\n    tag_2:\n      tag_3\n      tag_4\n      jump\t// in\n    tag_3:\n      stop\n    tag_4:\n        /* \"uints.sol\":140:141  2 */\n      0x02\n        /* \"uints.sol\":122:137  block.timestamp */\n      timestamp\n        /* \"uints.sol\":122:141  block.timestamp > 2 */\n      gt\n        /* \"uints.sol\":114:142  require(block.timestamp > 2) */\n      tag_6\n      jumpi\n      0x00\n      dup1\n      revert\n    tag_6:\n        /* \"uints.sol\":170:216  function send()public payable amount{\r... */\n      jump\t// out\n\n    auxdata: 0xa26469706673582212203ba58d2ad65d3b958018a9ef960014b4ac2cde6075dda7b5031eca0ea84469c764736f6c63430008070033\n}\n",
				"bytecode": {
					"linkReferences": {},
					"object": "6080604052348015600f57600080fd5b50606d80601d6000396000f3fe608060405260043610601c5760003560e01c8063b46300ec146021575b600080fd5b60276029565b005b60024211603557600080fd5b56fea26469706673582212203ba58d2ad65d3b958018a9ef960014b4ac2cde6075dda7b5031eca0ea84469c764736f6c63430008070033",
					"opcodes": "PUSH1 0x80 PUSH1 0x40 MSTORE CALLVALUE DUP1 ISZERO PUSH1 0xF JUMPI PUSH1 0x0 DUP1 REVERT JUMPDEST POP PUSH1 0x6D DUP1 PUSH1 0x1D PUSH1 0x0 CODECOPY PUSH1 0x0 RETURN INVALID PUSH1 0x80 PUSH1 0x40 MSTORE PUSH1 0x4 CALLDATASIZE LT PUSH1 0x1C JUMPI PUSH1 0x0 CALLDATALOAD PUSH1 0xE0 SHR DUP1 PUSH4 0xB46300EC EQ PUSH1 0x21 JUMPI JUMPDEST PUSH1 0x0 DUP1 REVERT JUMPDEST PUSH1 0x27 PUSH1 0x29 JUMP JUMPDEST STOP JUMPDEST PUSH1 0x2 TIMESTAMP GT PUSH1 0x35 JUMPI PUSH1 0x0 DUP1 REVERT JUMPDEST JUMP INVALID LOG2 PUSH5 0x6970667358 0x22 SLT KECCAK256 EXTCODESIZE 0xA5 DUP14 0x2A 0xD6 0x5D EXTCODESIZE SWAP6 DUP1 XOR 0xA9 0xEF SWAP7 STOP EQ 0xB4 0xAC 0x2C 0xDE PUSH1 0x75 0xDD 0xA7 0xB5 SUB 0x1E 0xCA 0xE 0xA8 DIFFICULTY PUSH10 0xC764736F6C6343000807 STOP CALLER "
				},
				"gasEstimates": {
					"creation": {
						"codeDepositCost": "21800",
						"executionCost": "75",
						"totalCost": "21875"
					},
					"external": {
						"send()": "120"
					}
				},
				"methodIdentifiers": {
					"send()": "b46300ec"
				}
			},
			"storageLayout": {
				"storage": [],
				"types": null
			},
			"userdoc": {
				"kind": "user",
				"methods": {},
				"version": 1
			}
		}
	}
}