{
	"events.sol": {
		"events": {
			"abi": [
				{
					"anonymous": false,
					"inputs": [
						{
							"indexed": false,
							"internalType": "address",
							"name": "_from",
							"type": "address"
						},
						{
							"indexed": false,
							"internalType": "address",
							"name": "_to",
							"type": "address"
						},
						{
							"indexed": false,
							"internalType": "uint256",
							"name": "_amount",
							"type": "uint256"
						}
					],
					"name": "transfer",
					"type": "event"
				},
				{
					"inputs": [
						{
							"internalType": "address",
							"name": "to",
							"type": "address"
						},
						{
							"internalType": "uint256",
							"name": "amount",
							"type": "uint256"
						}
					],
					"name": "trans",
					"outputs": [],
					"stateMutability": "nonpayable",
					"type": "function"
				}
			],
			"devdoc": {
				"kind": "dev",
				"methods": {},
				"version": 1
			},
			"evm": {
				"assembly": "    /* \"events.sol\":65:259  contract events{\r... */\n  mstore(0x40, 0x80)\n  callvalue\n  dup1\n  iszero\n  tag_1\n  jumpi\n  0x00\n  dup1\n  revert\ntag_1:\n  pop\n  dataSize(sub_0)\n  dup1\n  dataOffset(sub_0)\n  0x00\n  codecopy\n  0x00\n  return\nstop\n\nsub_0: assembly {\n        /* \"events.sol\":65:259  contract events{\r... */\n      mstore(0x40, 0x80)\n      callvalue\n      dup1\n      iszero\n      tag_1\n      jumpi\n      0x00\n      dup1\n      revert\n    tag_1:\n      pop\n      jumpi(tag_2, lt(calldatasize, 0x04))\n      shr(0xe0, calldataload(0x00))\n      dup1\n      0x3d2bc6de\n      eq\n      tag_3\n      jumpi\n    tag_2:\n      0x00\n      dup1\n      revert\n        /* \"events.sol\":152:256  function trans(address to, uint amount) public {\r... */\n    tag_3:\n      tag_4\n      0x04\n      dup1\n      calldatasize\n      sub\n      dup2\n      add\n      swap1\n      tag_5\n      swap2\n      swap1\n      tag_6\n      jump\t// in\n    tag_5:\n      tag_7\n      jump\t// in\n    tag_4:\n      stop\n    tag_7:\n        /* \"events.sol\":215:246  transfer(msg.sender,to, amount) */\n      0xbeabacc8ffedac16e9a60acdb2ca743d80c2ebb44977a93fa8e483c74d2b35a8\n        /* \"events.sol\":224:234  msg.sender */\n      caller\n        /* \"events.sol\":235:237  to */\n      dup4\n        /* \"events.sol\":239:245  amount */\n      dup4\n        /* \"events.sol\":215:246  transfer(msg.sender,to, amount) */\n      mload(0x40)\n      tag_9\n      swap4\n      swap3\n      swap2\n      swap1\n      tag_10\n      jump\t// in\n    tag_9:\n      mload(0x40)\n      dup1\n      swap2\n      sub\n      swap1\n      log1\n        /* \"events.sol\":152:256  function trans(address to, uint amount) public {\r... */\n      pop\n      pop\n      jump\t// out\n        /* \"#utility.yul\":7:146   */\n    tag_12:\n        /* \"#utility.yul\":53:58   */\n      0x00\n        /* \"#utility.yul\":91:97   */\n      dup2\n        /* \"#utility.yul\":78:98   */\n      calldataload\n        /* \"#utility.yul\":69:98   */\n      swap1\n      pop\n        /* \"#utility.yul\":107:140   */\n      tag_14\n        /* \"#utility.yul\":134:139   */\n      dup2\n        /* \"#utility.yul\":107:140   */\n      tag_15\n      jump\t// in\n    tag_14:\n        /* \"#utility.yul\":7:146   */\n      swap3\n      swap2\n      pop\n      pop\n      jump\t// out\n        /* \"#utility.yul\":152:291   */\n    tag_16:\n        /* \"#utility.yul\":198:203   */\n      0x00\n        /* \"#utility.yul\":236:242   */\n      dup2\n        /* \"#utility.yul\":223:243   */\n      calldataload\n        /* \"#utility.yul\":214:243   */\n      swap1\n      pop\n        /* \"#utility.yul\":252:285   */\n      tag_18\n        /* \"#utility.yul\":279:284   */\n      dup2\n        /* \"#utility.yul\":252:285   */\n      tag_19\n      jump\t// in\n    tag_18:\n        /* \"#utility.yul\":152:291   */\n      swap3\n      swap2\n      pop\n      pop\n      jump\t// out\n        /* \"#utility.yul\":297:771   */\n    tag_6:\n        /* \"#utility.yul\":365:371   */\n      0x00\n        /* \"#utility.yul\":373:379   */\n      dup1\n        /* \"#utility.yul\":422:424   */\n      0x40\n        /* \"#utility.yul\":410:419   */\n      dup4\n        /* \"#utility.yul\":401:408   */\n      dup6\n        /* \"#utility.yul\":397:420   */\n      sub\n        /* \"#utility.yul\":393:425   */\n      slt\n        /* \"#utility.yul\":390:509   */\n      iszero\n      tag_21\n      jumpi\n        /* \"#utility.yul\":428:507   */\n      tag_22\n      tag_23\n      jump\t// in\n    tag_22:\n        /* \"#utility.yul\":390:509   */\n    tag_21:\n        /* \"#utility.yul\":548:549   */\n      0x00\n        /* \"#utility.yul\":573:626   */\n      tag_24\n        /* \"#utility.yul\":618:625   */\n      dup6\n        /* \"#utility.yul\":609:615   */\n      dup3\n        /* \"#utility.yul\":598:607   */\n      dup7\n        /* \"#utility.yul\":594:616   */\n      add\n        /* \"#utility.yul\":573:626   */\n      tag_12\n      jump\t// in\n    tag_24:\n        /* \"#utility.yul\":563:626   */\n      swap3\n      pop\n        /* \"#utility.yul\":519:636   */\n      pop\n        /* \"#utility.yul\":675:677   */\n      0x20\n        /* \"#utility.yul\":701:754   */\n      tag_25\n        /* \"#utility.yul\":746:753   */\n      dup6\n        /* \"#utility.yul\":737:743   */\n      dup3\n        /* \"#utility.yul\":726:735   */\n      dup7\n        /* \"#utility.yul\":722:744   */\n      add\n        /* \"#utility.yul\":701:754   */\n      tag_16\n      jump\t// in\n    tag_25:\n        /* \"#utility.yul\":691:754   */\n      swap2\n      pop\n        /* \"#utility.yul\":646:764   */\n      pop\n        /* \"#utility.yul\":297:771   */\n      swap3\n      pop\n      swap3\n      swap1\n      pop\n      jump\t// out\n        /* \"#utility.yul\":777:895   */\n    tag_26:\n        /* \"#utility.yul\":864:888   */\n      tag_28\n        /* \"#utility.yul\":882:887   */\n      dup2\n        /* \"#utility.yul\":864:888   */\n      tag_29\n      jump\t// in\n    tag_28:\n        /* \"#utility.yul\":859:862   */\n      dup3\n        /* \"#utility.yul\":852:889   */\n      mstore\n        /* \"#utility.yul\":777:895   */\n      pop\n      pop\n      jump\t// out\n        /* \"#utility.yul\":901:1019   */\n    tag_30:\n        /* \"#utility.yul\":988:1012   */\n      tag_32\n        /* \"#utility.yul\":1006:1011   */\n      dup2\n        /* \"#utility.yul\":988:1012   */\n      tag_33\n      jump\t// in\n    tag_32:\n        /* \"#utility.yul\":983:986   */\n      dup3\n        /* \"#utility.yul\":976:1013   */\n      mstore\n        /* \"#utility.yul\":901:1019   */\n      pop\n      pop\n      jump\t// out\n        /* \"#utility.yul\":1025:1467   */\n    tag_10:\n        /* \"#utility.yul\":1174:1178   */\n      0x00\n        /* \"#utility.yul\":1212:1214   */\n      0x60\n        /* \"#utility.yul\":1201:1210   */\n      dup3\n        /* \"#utility.yul\":1197:1215   */\n      add\n        /* \"#utility.yul\":1189:1215   */\n      swap1\n      pop\n        /* \"#utility.yul\":1225:1296   */\n      tag_35\n        /* \"#utility.yul\":1293:1294   */\n      0x00\n        /* \"#utility.yul\":1282:1291   */\n      dup4\n        /* \"#utility.yul\":1278:1295   */\n      add\n        /* \"#utility.yul\":1269:1275   */\n      dup7\n        /* \"#utility.yul\":1225:1296   */\n      tag_26\n      jump\t// in\n    tag_35:\n        /* \"#utility.yul\":1306:1378   */\n      tag_36\n        /* \"#utility.yul\":1374:1376   */\n      0x20\n        /* \"#utility.yul\":1363:1372   */\n      dup4\n        /* \"#utility.yul\":1359:1377   */\n      add\n        /* \"#utility.yul\":1350:1356   */\n      dup6\n        /* \"#utility.yul\":1306:1378   */\n      tag_26\n      jump\t// in\n    tag_36:\n        /* \"#utility.yul\":1388:1460   */\n      tag_37\n        /* \"#utility.yul\":1456:1458   */\n      0x40\n        /* \"#utility.yul\":1445:1454   */\n      dup4\n        /* \"#utility.yul\":1441:1459   */\n      add\n        /* \"#utility.yul\":1432:1438   */\n      dup5\n        /* \"#utility.yul\":1388:1460   */\n      tag_30\n      jump\t// in\n    tag_37:\n        /* \"#utility.yul\":1025:1467   */\n      swap5\n      swap4\n      pop\n      pop\n      pop\n      pop\n      jump\t// out\n        /* \"#utility.yul\":1554:1650   */\n    tag_29:\n        /* \"#utility.yul\":1591:1598   */\n      0x00\n        /* \"#utility.yul\":1620:1644   */\n      tag_41\n        /* \"#utility.yul\":1638:1643   */\n      dup3\n        /* \"#utility.yul\":1620:1644   */\n      tag_42\n      jump\t// in\n    tag_41:\n        /* \"#utility.yul\":1609:1644   */\n      swap1\n      pop\n        /* \"#utility.yul\":1554:1650   */\n      swap2\n      swap1\n      pop\n      jump\t// out\n        /* \"#utility.yul\":1656:1782   */\n    tag_42:\n        /* \"#utility.yul\":1693:1700   */\n      0x00\n        /* \"#utility.yul\":1733:1775   */\n      0xffffffffffffffffffffffffffffffffffffffff\n        /* \"#utility.yul\":1726:1731   */\n      dup3\n        /* \"#utility.yul\":1722:1776   */\n      and\n        /* \"#utility.yul\":1711:1776   */\n      swap1\n      pop\n        /* \"#utility.yul\":1656:1782   */\n      swap2\n      swap1\n      pop\n      jump\t// out\n        /* \"#utility.yul\":1788:1865   */\n    tag_33:\n        /* \"#utility.yul\":1825:1832   */\n      0x00\n        /* \"#utility.yul\":1854:1859   */\n      dup2\n        /* \"#utility.yul\":1843:1859   */\n      swap1\n      pop\n        /* \"#utility.yul\":1788:1865   */\n      swap2\n      swap1\n      pop\n      jump\t// out\n        /* \"#utility.yul\":1994:2111   */\n    tag_23:\n        /* \"#utility.yul\":2103:2104   */\n      0x00\n        /* \"#utility.yul\":2100:2101   */\n      dup1\n        /* \"#utility.yul\":2093:2105   */\n      revert\n        /* \"#utility.yul\":2117:2239   */\n    tag_15:\n        /* \"#utility.yul\":2190:2214   */\n      tag_49\n        /* \"#utility.yul\":2208:2213   */\n      dup2\n        /* \"#utility.yul\":2190:2214   */\n      tag_29\n      jump\t// in\n    tag_49:\n        /* \"#utility.yul\":2183:2188   */\n      dup2\n        /* \"#utility.yul\":2180:2215   */\n      eq\n        /* \"#utility.yul\":2170:2233   */\n      tag_50\n      jumpi\n        /* \"#utility.yul\":2229:2230   */\n      0x00\n        /* \"#utility.yul\":2226:2227   */\n      dup1\n        /* \"#utility.yul\":2219:2231   */\n      revert\n        /* \"#utility.yul\":2170:2233   */\n    tag_50:\n        /* \"#utility.yul\":2117:2239   */\n      pop\n      jump\t// out\n        /* \"#utility.yul\":2245:2367   */\n    tag_19:\n        /* \"#utility.yul\":2318:2342   */\n      tag_52\n        /* \"#utility.yul\":2336:2341   */\n      dup2\n        /* \"#utility.yul\":2318:2342   */\n      tag_33\n      jump\t// in\n    tag_52:\n        /* \"#utility.yul\":2311:2316   */\n      dup2\n        /* \"#utility.yul\":2308:2343   */\n      eq\n        /* \"#utility.yul\":2298:2361   */\n      tag_53\n      jumpi\n        /* \"#utility.yul\":2357:2358   */\n      0x00\n        /* \"#utility.yul\":2354:2355   */\n      dup1\n        /* \"#utility.yul\":2347:2359   */\n      revert\n        /* \"#utility.yul\":2298:2361   */\n    tag_53:\n        /* \"#utility.yul\":2245:2367   */\n      pop\n      jump\t// out\n\n    auxdata: 0xa2646970667358221220d0a270d02d32a05a743cb3c4c02237e5ea0b5a3c29ea04468f09ec24dc5ab4e864736f6c63430008070033\n}\n",
				"bytecode": {
					"linkReferences": {},
					"object": "608060405234801561001057600080fd5b506101ef806100206000396000f3fe608060405234801561001057600080fd5b506004361061002b5760003560e01c80633d2bc6de14610030575b600080fd5b61004a600480360381019061004591906100b5565b61004c565b005b7fbeabacc8ffedac16e9a60acdb2ca743d80c2ebb44977a93fa8e483c74d2b35a833838360405161007f93929190610113565b60405180910390a15050565b60008135905061009a8161018b565b92915050565b6000813590506100af816101a2565b92915050565b600080604083850312156100cc576100cb610186565b5b60006100da8582860161008b565b92505060206100eb858286016100a0565b9150509250929050565b6100fe8161014a565b82525050565b61010d8161017c565b82525050565b600060608201905061012860008301866100f5565b61013560208301856100f5565b6101426040830184610104565b949350505050565b60006101558261015c565b9050919050565b600073ffffffffffffffffffffffffffffffffffffffff82169050919050565b6000819050919050565b600080fd5b6101948161014a565b811461019f57600080fd5b50565b6101ab8161017c565b81146101b657600080fd5b5056fea2646970667358221220d0a270d02d32a05a743cb3c4c02237e5ea0b5a3c29ea04468f09ec24dc5ab4e864736f6c63430008070033",
					"opcodes": "PUSH1 0x80 PUSH1 0x40 MSTORE CALLVALUE DUP1 ISZERO PUSH2 0x10 JUMPI PUSH1 0x0 DUP1 REVERT JUMPDEST POP PUSH2 0x1EF DUP1 PUSH2 0x20 PUSH1 0x0 CODECOPY PUSH1 0x0 RETURN INVALID PUSH1 0x80 PUSH1 0x40 MSTORE CALLVALUE DUP1 ISZERO PUSH2 0x10 JUMPI PUSH1 0x0 DUP1 REVERT JUMPDEST POP PUSH1 0x4 CALLDATASIZE LT PUSH2 0x2B JUMPI PUSH1 0x0 CALLDATALOAD PUSH1 0xE0 SHR DUP1 PUSH4 0x3D2BC6DE EQ PUSH2 0x30 JUMPI JUMPDEST PUSH1 0x0 DUP1 REVERT JUMPDEST PUSH2 0x4A PUSH1 0x4 DUP1 CALLDATASIZE SUB DUP2 ADD SWAP1 PUSH2 0x45 SWAP2 SWAP1 PUSH2 0xB5 JUMP JUMPDEST PUSH2 0x4C JUMP JUMPDEST STOP JUMPDEST PUSH32 0xBEABACC8FFEDAC16E9A60ACDB2CA743D80C2EBB44977A93FA8E483C74D2B35A8 CALLER DUP4 DUP4 PUSH1 0x40 MLOAD PUSH2 0x7F SWAP4 SWAP3 SWAP2 SWAP1 PUSH2 0x113 JUMP JUMPDEST PUSH1 0x40 MLOAD DUP1 SWAP2 SUB SWAP1 LOG1 POP POP JUMP JUMPDEST PUSH1 0x0 DUP2 CALLDATALOAD SWAP1 POP PUSH2 0x9A DUP2 PUSH2 0x18B JUMP JUMPDEST SWAP3 SWAP2 POP POP JUMP JUMPDEST PUSH1 0x0 DUP2 CALLDATALOAD SWAP1 POP PUSH2 0xAF DUP2 PUSH2 0x1A2 JUMP JUMPDEST SWAP3 SWAP2 POP POP JUMP JUMPDEST PUSH1 0x0 DUP1 PUSH1 0x40 DUP4 DUP6 SUB SLT ISZERO PUSH2 0xCC JUMPI PUSH2 0xCB PUSH2 0x186 JUMP JUMPDEST JUMPDEST PUSH1 0x0 PUSH2 0xDA DUP6 DUP3 DUP7 ADD PUSH2 0x8B JUMP JUMPDEST SWAP3 POP POP PUSH1 0x20 PUSH2 0xEB DUP6 DUP3 DUP7 ADD PUSH2 0xA0 JUMP JUMPDEST SWAP2 POP POP SWAP3 POP SWAP3 SWAP1 POP JUMP JUMPDEST PUSH2 0xFE DUP2 PUSH2 0x14A JUMP JUMPDEST DUP3 MSTORE POP POP JUMP JUMPDEST PUSH2 0x10D DUP2 PUSH2 0x17C JUMP JUMPDEST DUP3 MSTORE POP POP JUMP JUMPDEST PUSH1 0x0 PUSH1 0x60 DUP3 ADD SWAP1 POP PUSH2 0x128 PUSH1 0x0 DUP4 ADD DUP7 PUSH2 0xF5 JUMP JUMPDEST PUSH2 0x135 PUSH1 0x20 DUP4 ADD DUP6 PUSH2 0xF5 JUMP JUMPDEST PUSH2 0x142 PUSH1 0x40 DUP4 ADD DUP5 PUSH2 0x104 JUMP JUMPDEST SWAP5 SWAP4 POP POP POP POP JUMP JUMPDEST PUSH1 0x0 PUSH2 0x155 DUP3 PUSH2 0x15C JUMP JUMPDEST SWAP1 POP SWAP2 SWAP1 POP JUMP JUMPDEST PUSH1 0x0 PUSH20 0xFFFFFFFFFFFFFFFFFFFFFFFFFFFFFFFFFFFFFFFF DUP3 AND SWAP1 POP SWAP2 SWAP1 POP JUMP JUMPDEST PUSH1 0x0 DUP2 SWAP1 POP SWAP2 SWAP1 POP JUMP JUMPDEST PUSH1 0x0 DUP1 REVERT JUMPDEST PUSH2 0x194 DUP2 PUSH2 0x14A JUMP JUMPDEST DUP2 EQ PUSH2 0x19F JUMPI PUSH1 0x0 DUP1 REVERT JUMPDEST POP JUMP JUMPDEST PUSH2 0x1AB DUP2 PUSH2 0x17C JUMP JUMPDEST DUP2 EQ PUSH2 0x1B6 JUMPI PUSH1 0x0 DUP1 REVERT JUMPDEST POP JUMP INVALID LOG2 PUSH5 0x6970667358 0x22 SLT KECCAK256 0xD0 LOG2 PUSH17 0xD02D32A05A743CB3C4C02237E5EA0B5A3C 0x29 0xEA DIV CHAINID DUP16 MULMOD 0xEC 0x24 0xDC GAS 0xB4 0xE8 PUSH5 0x736F6C6343 STOP ADDMOD SMOD STOP CALLER "
				},
				"gasEstimates": {
					"creation": {
						"codeDepositCost": "99000",
						"executionCost": "147",
						"totalCost": "99147"
					},
					"external": {
						"trans(address,uint256)": "infinite"
					}
				},
				"methodIdentifiers": {
					"trans(address,uint256)": "3d2bc6de"
				}
			},
			"storageLayout": {
				"storage": [],
				"types": null
			},
			"userdoc": {
				"kind": "user",
				"methods": {},
				"version": 1
			}
		}
	}
}